#############################################################################
# Original Hex Dump from Perseus Distribution SDRDK
# For DEFAULT use (used in StreamSample.exe)
# Version 3.3 - 4 June 2013
# This file is part of the Microtelecom Software Defined Radio Developer Kit
# and is subject to licensing conditions contained in the document
# "SDRDK-Licensing-Agreement-v20.doc"
# Copyright 2007-2013 Microtelecom s.r.l. - Pavia di Udine, Italy
#############################################################################
:0A0E2D00000102020303040405059E
:1004FD00E4F52CF52BF52AF529C203C200C202C280
:10050D000112065D7E097F008E0A8F0B751209752B
:10051D00131275080975091C7510097511437514A9
:10052D000975156AEE54C070030205FE752D007530
:10053D002E808E2F8F30C374A69FFF74099ECF24FB
:10054D0002CF3400FEE48F288E27F526F525F524FD
:10055D00F523F522F521AF28AE27AD26AC25AB242A
:10056D00AA23A922A821C3120AAF5033E5302524AE
:10057D00F582E52F3523F583E0FFE52E2524F58261
:10058D00E52D3523F583EFF0E5242401F524E4353D
:10059D0023F523E43522F522E43521F52180B785B5
:1005AD002D0A852E0B74002480FF740934FFFEC3C1
:1005BD00E5139FF513E5129EF512C3E50D9FF50D9D
:1005CD00E50C9EF50CC3E50F9FF50FE50E9EF50EA0
:1005DD00C3E5099FF509E5089EF508C3E5119FF5EB
:1005ED0011E5109EF510C3E5159FF515E5149EF563
:1005FD0014D2E843D82090E668E04409F090E65C18
:10060D00E0443DF0D2AFD204120C3690E680E054B7
:10061D00F7F0538EF8C2031200803001051202C6A6
:10062D00C2013003F21208FE50EDC203120D0C2070
:10063D00001690E682E030E704E020E1EF90E682DC
:10064D00E030E604E020E0E4120C65120E4B80C7AA
:0B0E220090E50DE030E402C322D32273
:1002C60090E6B9E070030203851470030204022469
:1002D600FE700302048524FB700302037F1470037F
:1002E60002037914700302036D147003020373246E
:1002F6000560030204E9120E4D40030204F590E680
:10030600BBE024FE602714603824FD6011146027CA
:1003160024067050E50A90E6B3F0E50B803C120E19
:1003260022503EE51290E6B3F0E513802DE50C90E1
:10033600E6B3F0E50D8023E50E90E6B3F0E50F8019
:100346001990E6BAE0FF120C91AA06A9077B01EA0A
:10035600494B600DEE90E6B3F0EF90E6B4F0020480
:10036600F50204E40204E4120DF30204F5120E3F52
:100376000204F5120E370204F51207EE0204F51216
:100386000E4F40030204F590E6B8E0247F60151492
:10039600601924027063A200E43325E0FFA202E4A0
:1003A600334F8041E490E740F0803F90E6BCE05454
:1003B6007EFF7E00E0D394807C0040047D018002B5
:1003C6007D00EC4EFEED4F242DF582740E3EF58336
:1003D600E493FF3395E0FEEF24A1FFEE34E68F822F
:1003E600F583E0540190E740F0E4A3F090E68AF04C
:1003F60090E68B7402F00204F50204E4120E5140FA
:10040600030204F590E6B8E024FE601624026003B9
:100416000204F590E6BAE0B40105C2000204F50252
:1004260004E490E6BAE0705590E6BCE0547EFF7EA8
:1004360000E0D394807C0040047D0180027D00ECC6
:100446004EFEED4F242DF582740E3EF583E493FFA8
:100456003395E0FEEF24A1FFEE34E68F82F583E0CC
:1004660054FEF090E6BCE05480131313541FFFE0D3
:10047600540F2F90E683F0E04420F08072805F12E4
:100486000E53506B90E6B8E024FE60192402704EBD
:1004960090E6BAE0B40104D200805490E6BAE06473
:1004A60002604C803990E6BCE0547EFF7E00E0D3CB
:1004B60094807C0040047D0180027D00EC4EFEEDC0
:1004C6004F242DF582740E3EF583E493FF3395E0B9
:1004D600FEEF24A1FFEE34E68F82F583800D90E6D1
:1004E600A08008120CE4500790E6A0E04401F090CA
:0604F600E6A0E04480F0E6
:0104FC0022DD
:03003300020E4773
:040E470053D8EF325B
:100900001201000200000040B4045C320000010249
:1009100000010A0600020000004001000902270051
:1009200001010080320904000003FF0000000705F8
:100930000102400000070581024000000705820215
:1009400000020009022700010100803209040000B2
:1009500003FF0000000705010240000007058102B7
:10096000400000070582024000000403090422033E
:100970004D006900630072006F00740065006C0038
:10098000650063006F006D002000730072006C0052
:100990001603500065007200730065007500730057
:0809A000200064007300000058
:03004300020800B0
:03005300020800A0
:10080000020D9700020DDD00020DC700020DAF00C2
:10081000020C0000020BC300020E5500020E56002F
:10082000020E5700020E5800020E5900020E5A0026
:10083000020E5B00020E5C00020E5D00020E5E0006
:10084000020E5F00020E5600020E6000020E6100F2
:10085000020E6200020E6300020E6400020E6500CA
:10086000020E6600020E5600020E5600020E5600E0
:10087000020E6700020E6800020E6900020E6A0096
:10088000020E6B00020E6C00020E6D00020E6E0076
:10089000020E6F00020E7000020E7100020E720056
:1008A000020E7300020E7400020E7500020E760036
:0808B000020E7700020E780031
:100C650090E682E030E004E020E60B90E682E0309A
:100C7500E119E030E71590E680E04401F07F147E4D
:0C0C8500001208B890E680E054FEF02257
:100C360030040990E680E0440AF0800790E680E000
:100C46004408F07FDC7E051208B890E65D74FFF07C
:0F0C560090E65FF05391EF90E680E054F7F022C4
:020C9100A907B1
:100C9300AE14AF158F828E83A3E064037017AD018A
:100CA30019ED7001228F828E83E07C002FFDEC3ED4
:080CB300FEAF0580DFE4FEFF47
:010CBB002216
:100D0C0090E682E044C0F090E681F0438701000059
:040D1C0000000022B1
:1008B8008E318F3290E600E054187012E532240130
:1008C800FFE43531C313F531EF13F532801590E6A7
:1008D80000E05418FFBF100BE53225E0F532E53192
:1008E80033F531E5321532AE31700215314E6005FF
:0608F800120D2080EE222B
:100D20007400F58690FDA57C05A3E582458370F9E6
:010D300022A0
:10065D0090E600E054E74410F0E4F58E90E60B745C
:10066D0003F090E6047480F00000007402F00000C6
:10067D00007404F00000007406F00000007408F02F
:10068D00000000E4F000000090E6017440F090E6F8
:10069D00187405F000000090E61074A0F000000042
:1006AD0090E611F000000090E61274E0F0000000FA
:1006BD0090E6137420F000000090E614F0000000A6
:1006CD0090E615F000000090E602748CF00000003A
:1006DD0090E60374AEF0000000E490E609F000002F
:1006ED000090E6207402F0000000E490E621F00096
:1006FD00000090E68D04F0000000E490E671F075C6
:10070D00B48B75A08053A07F90E6707480F0F5B225
:10071D00E4F59075B3FF90E672F075B6FF75B13ADA
:10072D00E5AB20E10990E6487482F000000043A09B
:10073D00807B007A007931754A00754B02E4FFFE2B
:03074D0002075050
:100CBC0090E6017440F0E4F59075B3FF75A0805395
:100CCC00A07FFFFE0FBF00010EEF64804E70F54356
:070CDC00A080E5A030E2FB5F
:010CE30022EE
:100AC000E5A030E4047F0180027F0090E6017443DA
:100AD000F0E4FDFC0DBD00010CED64804C70F59060
:100AE000E6047402F000000090E618740DF00000B7
:100AF0000090E61274E0F000000090E602748CF0C2
:100B000000000090E60374AEF0000000E490E609F7
:100B1000F000000090E6207402F0000000E490E68F
:100B200021F0000000E5AB20E10990E6487482F076
:030B3000000000C2
:010B3300229F
:0A09A8008E3B8F3C8B3D8A3E893F59
:1009B20075A082E4F545F546C3E546953CE54595C7
:1009C2003B506CAB3D053FE53FAA3E7002053E142D
:1009D200F9120A35FFE4FDFCEF30E00575438A8029
:1009E200037543828543A0EFC313FFAEA0EE30E24E
:1009F2000AE544C3134480F5448006E544C313F575
:100A020044E5434401F5A00DBD00010CED64084C22
:100A120070C6AB400542E542AA417002054114F995
:100A2200E544120A7B0546E546708D0545808975C9
:020A3200A080A2
:010A3400229F
:060D560090E679F0D205E1
:100D5C0090E678E020E014E020E2073005F2E02095
:0D0D6C00E1EE90E678E04440F0C322D3228F
:040B3400AB07AA065B
:100B3800E4FDFC90E678E04480F090E67974A2F059
:100B4800D205120D5C400B0DBD00010CED64034C89
:100B580070E1ED64034C700990E678E04440F0C31E
:100B680022EA120D5640028006EB120D56400890FC
:080B7800E678E04440F022D3CE
:010B80002252
:060B81008B448A45894601
:100B8700D204120B34400122E5481548AE477002E3
:100B970015474E601EAB440546E546AA457002055B
:100BA7004514F9120A35120D5640DD90E678E044F7
:0B0BB70040F02290E678E04440F0D3CC
:010BC2002210
:060750008B478A4889492D
:10075600120B3440012290E678E04480F090E6796E
:1007660074A3F0D205120D5C4002805390E679E046
:10077600AB47AA48A949120A7BC205120D5C400282
:10078600803DE4FDFCC3ED954BEC954A5040E54BAE
:1007960024FEFFE54A34FFFEEFB5050BEEB5040770
:1007A60090E678E04420F090E679E0AB47AA48A9C5
:1007B600498D828C83120A8DC205120D5C40089009
:1007C600E678E04440F0220DBD00010C80B790E6CB
:1007D60078E04440F090E679E0AB47AA48A9498D15
:0707E600828C83120A8DD3FF
:0107ED0022E9
:040D3100AF05AE0458
:100D35008B428A438944E92401F9E43AFA85404A19
:100D450085414B120750E433AB42AA43A944020A3A
:010D55007B22
:100E0500AF05AE04854047854148120B81E433FFA9
:010E150022BA
:1000800090E6A1E030E1030202C57535017536E75F
:10009000753780AB35AA36A937120A35B408004047
:1000A000030202C09000ABF82828730200C30200CC
:1000B000C90200CF0201020202B20201560201A5EA
:1000C000020223120D790202C0120CBC0202C0759A
:1000D00038017539E7753AC0AB350537E537AA36CB
:1000E0007002053614F9120A35FFAB38053AE53AC5
:1000F000AA397002053914F9EF120A7B120AC002FC
:10010000029D7538017539E7753AC090E68DE07546
:100110003100F532AB350537E537AA3670020536C2
:1001200014F9120A35FFAB38053AE53AAA397002DC
:10013000053914F9EF120A7BE53224FFFFE531346B
:10014000FFFE853840853941853A42AB35AA36A94C
:10015000371209A880497538017539E7753AC0909A
:10016000E68DE0753100F532E4FFFEC3EF9532EE27
:100170009531502BAB350537E537AA367002053679
:1001800014F9120A35FDAB38053AE53AAA3970027E
:10019000053914F9ED120A7B0FBF00010E80CC90D7
:1001A000E68DE080787538017539E7753AC0AB3572
:1001B0000537E537AA367002053614F9120A35FFFD
:1001C000AB38053AE53AAA397002053914F9EF124D
:1001D0000A7BAB350537E537AA367002053614F9C8
:1001E000120A35753300F5340537E537AA36700243
:1001F000053614F9120A35FEEE4233AA36A9371233
:100200000A35753100F532AB38AA39A93A85314043
:10021000F541AD34AC33120D31E532240290E68F56
:100220000202AC7538017539E7753AC0AB35053750
:10023000E537AA367002053614F9120A35FFAB38D5
:10024000053AE53AAA397002053914F9EF120A7B2A
:10025000AB350537E537AA367002053614F9120AB0
:1002600035753300F5340537E537AA3670020536A3
:1002700014F9120A35FEEE42330537E537AA367017
:1002800002053614F9120A35753100F532AA36A97D
:1002900037853140F541AD34AC33120E05AB38AA89
:1002A00039A93AEF120A7B90E68F7402F000000041
:1002B000800EAB35AA36A937900001120A4EF5B16F
:0502C000E490E68DF062
:0102C5002216
:0208FE00D32203
:020E4B00D322B0
:020E4D00D322AE
:080E370090E6BAE0F517D322A2
:1007EE0090E740E517F0E490E68AF090E68B04F08F
:0207FE00D32204
:080E3F0090E6BAE0F516D3229B
:100DF30090E740E516F0E490E68AF090E68B04F085
:020E0300D322F8
:020E4F00D322AC
:020E5100D322AA
:020E5300D322A8
:100CE40090E6B9E0242F600D04701990E604E0FF4B
:100CF400430780800890E604E0FF53077F0000006C
:070D0400EFF08002D322C3CF
:010D0B0022C5
:100D9700C0E0C083C082D2015391EF90E65D740139
:080DA700F0D082D083D0E032CD
:100DC700C0E0C083C0825391EF90E65D7404F0D019
:060DD70082D083D0E0325F
:100DDD00C0E0C083C0825391EF90E65D7402F0D005
:060DED0082D083D0E03249
:100C0000C0E0C083C08285100C85110D850D8285E2
:100C10000C83A37402F085080E85090F850F828569
:100C20000E83A37407F05391EF90E65D7410F0D03B
:060C300082D083D0E03207
:100DAF00C0E0C083C082D2035391EF90E65D740818
:080DBF00F0D082D083D0E032B5
:100BC300C0E0C083C08290E680E030E72085080C57
:100BD30085090D850D82850C83A37402F085100EA3
:100BE30085110F850F82850E83A37407F05391EF50
:0D0BF30090E65D7420F0D082D083D0E03217
:010E5500326A
:010E56003269
:010E57003268
:010E58003267
:010E59003266
:010E5A003265
:010E5B003264
:010E5C003263
:010E5D003262
:010E5E003261
:010E5F003260
:010E6000325F
:010E6100325E
:010E6200325D
:010E6300325C
:010E6400325B
:010E6500325A
:010E66003259
:010E67003258
:010E68003257
:010E69003256
:010E6A003255
:010E6B003254
:010E6C003253
:010E6D003252
:010E6E003251
:010E6F003250
:010E7000324F
:010E7100324E
:010E7200324D
:010E7300324C
:010E7400324B
:010E7500324A
:010E76003249
:010E77003248
:010E78003247
:100D790090E68DE014FF90E78175A084E0F5907509
:0E0D8900A084A375A0851FEF70F275A08422D0
:03000000020E16D7
:0C0E1600787FE4F6D8FD75814B0204FDE6
:100A3500BB010689828A83E0225002E722BBFE02BF
:090A4500E32289828A83E49322F2
:100A4E00BB010CE58229F582E5833AF583E022505D
:100A5E0006E92582F8E622BBFE06E92582F8E222A7
:0D0A6E00E58229F582E5833AF583E49322C1
:100A7B00BB010689828A83F0225002F722BBFE015A
:020A8B00F32254
:100A8D00F8BB010DE58229F582E5833AF583E8F09F
:100A9D00225006E92582C8F622BBFE05E92582C84B
:020AAD00F22233
:100AAF00EB9FF5F0EA9E42F0E99D42F0E89C45F09D
:010ABF002214